{
  "_format": "hh-sol-artifact-1",
  "contractName": "SchoolContract",
  "sourceName": "Contracts/School.sol",
  "abi": [
    {
      "inputs": [],
      "stateMutability": "nonpayable",
      "type": "constructor"
    },
    {
      "inputs": [
        {
          "internalType": "address payable",
          "name": "walletAddress",
          "type": "address"
        },
        {
          "internalType": "uint256",
          "name": "examgrade",
          "type": "uint256"
        },
        {
          "internalType": "uint256",
          "name": "balances",
          "type": "uint256"
        }
      ],
      "name": "addStudent",
      "outputs": [],
      "stateMutability": "nonpayable",
      "type": "function"
    },
    {
      "inputs": [
        {
          "internalType": "address payable",
          "name": "walletAddress",
          "type": "address"
        },
        {
          "internalType": "uint256",
          "name": "balances",
          "type": "uint256"
        }
      ],
      "name": "addTeacher",
      "outputs": [],
      "stateMutability": "nonpayable",
      "type": "function"
    },
    {
      "inputs": [
        {
          "internalType": "address",
          "name": "walletAddress",
          "type": "address"
        }
      ],
      "name": "deleteStudent",
      "outputs": [],
      "stateMutability": "nonpayable",
      "type": "function"
    },
    {
      "inputs": [
        {
          "internalType": "address",
          "name": "walletAddress",
          "type": "address"
        }
      ],
      "name": "deleteTeacher",
      "outputs": [],
      "stateMutability": "nonpayable",
      "type": "function"
    },
    {
      "inputs": [
        {
          "internalType": "address",
          "name": "walletAddress",
          "type": "address"
        }
      ],
      "name": "getStudents",
      "outputs": [
        {
          "internalType": "address",
          "name": "_walletAdress",
          "type": "address"
        },
        {
          "internalType": "uint256",
          "name": "_examgrade",
          "type": "uint256"
        },
        {
          "internalType": "uint256",
          "name": "_balances",
          "type": "uint256"
        }
      ],
      "stateMutability": "view",
      "type": "function"
    },
    {
      "inputs": [
        {
          "internalType": "address",
          "name": "walletAddress",
          "type": "address"
        }
      ],
      "name": "getTeacher",
      "outputs": [
        {
          "internalType": "address",
          "name": "_walletAddress",
          "type": "address"
        },
        {
          "internalType": "uint256",
          "name": "_balances",
          "type": "uint256"
        }
      ],
      "stateMutability": "view",
      "type": "function"
    },
    {
      "inputs": [],
      "name": "manager",
      "outputs": [
        {
          "internalType": "address",
          "name": "",
          "type": "address"
        }
      ],
      "stateMutability": "view",
      "type": "function"
    },
    {
      "inputs": [],
      "name": "managerSalary",
      "outputs": [
        {
          "internalType": "uint256",
          "name": "",
          "type": "uint256"
        }
      ],
      "stateMutability": "view",
      "type": "function"
    },
    {
      "inputs": [
        {
          "internalType": "address",
          "name": "walletAddress",
          "type": "address"
        }
      ],
      "name": "passedOrNot",
      "outputs": [
        {
          "internalType": "string",
          "name": "",
          "type": "string"
        }
      ],
      "stateMutability": "view",
      "type": "function"
    },
    {
      "inputs": [
        {
          "internalType": "address",
          "name": "walletAddress",
          "type": "address"
        },
        {
          "internalType": "uint256",
          "name": "_amount",
          "type": "uint256"
        }
      ],
      "name": "sendEtherStudent",
      "outputs": [],
      "stateMutability": "payable",
      "type": "function"
    },
    {
      "inputs": [
        {
          "internalType": "address",
          "name": "walletAddress",
          "type": "address"
        },
        {
          "internalType": "uint256",
          "name": "_examgrade",
          "type": "uint256"
        }
      ],
      "name": "setStudentsNotes",
      "outputs": [],
      "stateMutability": "nonpayable",
      "type": "function"
    },
    {
      "inputs": [
        {
          "internalType": "address",
          "name": "",
          "type": "address"
        }
      ],
      "name": "students",
      "outputs": [
        {
          "internalType": "address payable",
          "name": "walletAddress",
          "type": "address"
        },
        {
          "internalType": "uint256",
          "name": "examgrade",
          "type": "uint256"
        },
        {
          "internalType": "uint256",
          "name": "balances",
          "type": "uint256"
        }
      ],
      "stateMutability": "view",
      "type": "function"
    },
    {
      "inputs": [
        {
          "internalType": "address",
          "name": "walletAddress",
          "type": "address"
        },
        {
          "internalType": "uint256",
          "name": "_amount",
          "type": "uint256"
        }
      ],
      "name": "teacherPayment",
      "outputs": [],
      "stateMutability": "nonpayable",
      "type": "function"
    },
    {
      "inputs": [
        {
          "internalType": "address",
          "name": "walletAddress",
          "type": "address"
        },
        {
          "internalType": "uint256",
          "name": "_extraPayment",
          "type": "uint256"
        }
      ],
      "name": "teacherWantExtra",
      "outputs": [],
      "stateMutability": "nonpayable",
      "type": "function"
    },
    {
      "inputs": [
        {
          "internalType": "address",
          "name": "",
          "type": "address"
        }
      ],
      "name": "teachers",
      "outputs": [
        {
          "internalType": "address payable",
          "name": "teacherWalletAddress",
          "type": "address"
        },
        {
          "internalType": "uint256",
          "name": "balances",
          "type": "uint256"
        }
      ],
      "stateMutability": "view",
      "type": "function"
    }
  ],
  "bytecode": "0x6080604052670de0b6b3a764000060015534801561001c57600080fd5b50336000806101000a81548173ffffffffffffffffffffffffffffffffffffffff021916908373ffffffffffffffffffffffffffffffffffffffff1602179055506121358061006c6000396000f3fe6080604052600436106100e85760003560e01c8063a6c807a91161008a578063f0a47f7811610059578063f0a47f78146102e7578063f4d3191e14610325578063f8c4191f1461034e578063fb4326fa14610377576100e8565b8063a6c807a914610217578063aa8e358d14610256578063b907424014610295578063d1fb8bec146102be576100e8565b80632fc05a34116100c65780632fc05a341461015d578063481c6a7514610186578063730bcc5d146101b157806388f54b4c146101da576100e8565b80630e3217f2146100ed5780631cb9a04514610118578063266e09c314610134575b600080fd5b3480156100f957600080fd5b506101026103b5565b60405161010f919061186c565b60405180910390f35b610132600480360381019061012d9190611916565b6103bb565b005b34801561014057600080fd5b5061015b60048036038101906101569190611916565b61067b565b005b34801561016957600080fd5b50610184600480360381019061017f9190611994565b61086e565b005b34801561019257600080fd5b5061019b610b48565b6040516101a891906119f6565b60405180910390f35b3480156101bd57600080fd5b506101d860048036038101906101d39190611a11565b610b6c565b005b3480156101e657600080fd5b5061020160048036038101906101fc9190611a11565b610cfb565b60405161020e9190611ad7565b60405180910390f35b34801561022357600080fd5b5061023e60048036038101906102399190611a11565b610dc1565b60405161024d93929190611b08565b60405180910390f35b34801561026257600080fd5b5061027d60048036038101906102789190611a11565b610e0b565b60405161028c93929190611b3f565b60405180910390f35b3480156102a157600080fd5b506102bc60048036038101906102b79190611916565b610f06565b005b3480156102ca57600080fd5b506102e560048036038101906102e09190611b76565b61104f565b005b3480156102f357600080fd5b5061030e60048036038101906103099190611a11565b6112d4565b60405161031c929190611bb6565b60405180910390f35b34801561033157600080fd5b5061034c60048036038101906103479190611a11565b611318565b005b34801561035a57600080fd5b5061037560048036038101906103709190611916565b61141a565b005b34801561038357600080fd5b5061039e60048036038101906103999190611a11565b6115de565b6040516103ac929190611bdf565b60405180910390f35b60015481565b80600081116103ff576040517f08c379a00000000000000000000000000000000000000000000000000000000081526004016103f690611c54565b60405180910390fd5b82600360008273ffffffffffffffffffffffffffffffffffffffff1673ffffffffffffffffffffffffffffffffffffffff16815260200190815260200160002060000160009054906101000a900473ffffffffffffffffffffffffffffffffffffffff1673ffffffffffffffffffffffffffffffffffffffff16600260008373ffffffffffffffffffffffffffffffffffffffff1673ffffffffffffffffffffffffffffffffffffffff16815260200190815260200160002060000160009054906101000a900473ffffffffffffffffffffffffffffffffffffffff1673ffffffffffffffffffffffffffffffffffffffff161415610533576040517f08c379a000000000000000000000000000000000000000000000000000000000815260040161052a90611cc0565b60405180910390fd5b670de0b6b3a7640000831061057d576040517f08c379a000000000000000000000000000000000000000000000000000000000815260040161057490611d52565b60405180910390fd5b6055600360008673ffffffffffffffffffffffffffffffffffffffff1673ffffffffffffffffffffffffffffffffffffffff168152602001908152602001600020600101541015610603576040517f08c379a00000000000000000000000000000000000000000000000000000000081526004016105fa90611dbe565b60405180910390fd5b82600360008673ffffffffffffffffffffffffffffffffffffffff1673ffffffffffffffffffffffffffffffffffffffff16815260200190815260200160002060020160008282546106559190611e0d565b92505081905550826001600082825461066e9190611e63565b9250508190555050505050565b81600360008273ffffffffffffffffffffffffffffffffffffffff1673ffffffffffffffffffffffffffffffffffffffff16815260200190815260200160002060000160009054906101000a900473ffffffffffffffffffffffffffffffffffffffff1673ffffffffffffffffffffffffffffffffffffffff16600260008373ffffffffffffffffffffffffffffffffffffffff1673ffffffffffffffffffffffffffffffffffffffff16815260200190815260200160002060000160009054906101000a900473ffffffffffffffffffffffffffffffffffffffff1673ffffffffffffffffffffffffffffffffffffffff1614156107af576040517f08c379a00000000000000000000000000000000000000000000000000000000081526004016107a690611cc0565b60405180910390fd5b6031821161082e5781600260008573ffffffffffffffffffffffffffffffffffffffff1673ffffffffffffffffffffffffffffffffffffffff16815260200190815260200160002060010160008282546108099190611e0d565b9250508190555081600160008282546108229190611e63565b92505081905550610869565b6040517f08c379a000000000000000000000000000000000000000000000000000000000815260040161086090611f09565b60405180910390fd5b505050565b3373ffffffffffffffffffffffffffffffffffffffff1660008054906101000a900473ffffffffffffffffffffffffffffffffffffffff1673ffffffffffffffffffffffffffffffffffffffff16146108fc576040517f08c379a00000000000000000000000000000000000000000000000000000000081526004016108f390611f75565b60405180910390fd5b826064831115610941576040517f08c379a000000000000000000000000000000000000000000000000000000000815260040161093890611fe1565b60405180910390fd5b60405180606001604052808573ffffffffffffffffffffffffffffffffffffffff16815260200184815260200183815250600360008673ffffffffffffffffffffffffffffffffffffffff1673ffffffffffffffffffffffffffffffffffffffff16815260200190815260200160002060008201518160000160006101000a81548173ffffffffffffffffffffffffffffffffffffffff021916908373ffffffffffffffffffffffffffffffffffffffff1602179055506020820151816001015560408201518160020155905050600360008273ffffffffffffffffffffffffffffffffffffffff1673ffffffffffffffffffffffffffffffffffffffff16815260200190815260200160002060000160009054906101000a900473ffffffffffffffffffffffffffffffffffffffff1673ffffffffffffffffffffffffffffffffffffffff16600260008373ffffffffffffffffffffffffffffffffffffffff1673ffffffffffffffffffffffffffffffffffffffff16815260200190815260200160002060000160009054906101000a900473ffffffffffffffffffffffffffffffffffffffff1673ffffffffffffffffffffffffffffffffffffffff161415610b42576040517f08c379a0000000000000000000000000000000000000000000000000000000008152600401610b3990612073565b60405180910390fd5b50505050565b60008054906101000a900473ffffffffffffffffffffffffffffffffffffffff1681565b3373ffffffffffffffffffffffffffffffffffffffff1660008054906101000a900473ffffffffffffffffffffffffffffffffffffffff1673ffffffffffffffffffffffffffffffffffffffff1614610bfa576040517f08c379a0000000000000000000000000000000000000000000000000000000008152600401610bf190611f75565b60405180910390fd5b6000600360008373ffffffffffffffffffffffffffffffffffffffff1673ffffffffffffffffffffffffffffffffffffffff1681526020019081526020016000206001015414610c7f576040517f08c379a0000000000000000000000000000000000000000000000000000000008152600401610c76906120df565b60405180910390fd5b600360008273ffffffffffffffffffffffffffffffffffffffff1673ffffffffffffffffffffffffffffffffffffffff168152602001908152602001600020600080820160006101000a81549073ffffffffffffffffffffffffffffffffffffffff021916905560018201600090556002820160009055505050565b60606032600360008473ffffffffffffffffffffffffffffffffffffffff1673ffffffffffffffffffffffffffffffffffffffff168152602001908152602001600020600101541015610d83576040518060400160405280600b81526020017f596f75206661696c656421000000000000000000000000000000000000000000815250610dba565b6040518060400160405280600b81526020017f596f7520706173736564210000000000000000000000000000000000000000008152505b9050919050565b60036020528060005260406000206000915090508060000160009054906101000a900473ffffffffffffffffffffffffffffffffffffffff16908060010154908060020154905083565b6000806000600360008573ffffffffffffffffffffffffffffffffffffffff1673ffffffffffffffffffffffffffffffffffffffff16815260200190815260200160002060000160009054906101000a900473ffffffffffffffffffffffffffffffffffffffff169250600360008573ffffffffffffffffffffffffffffffffffffffff1673ffffffffffffffffffffffffffffffffffffffff168152602001908152602001600020600101549150600360008573ffffffffffffffffffffffffffffffffffffffff1673ffffffffffffffffffffffffffffffffffffffff1681526020019081526020016000206002015490509193909250565b8060008111610f4a576040517f08c379a0000000000000000000000000000000000000000000000000000000008152600401610f4190611c54565b60405180910390fd5b3373ffffffffffffffffffffffffffffffffffffffff1660008054906101000a900473ffffffffffffffffffffffffffffffffffffffff1673ffffffffffffffffffffffffffffffffffffffff1614610fd8576040517f08c379a0000000000000000000000000000000000000000000000000000000008152600401610fcf90611f75565b60405180910390fd5b81600260008573ffffffffffffffffffffffffffffffffffffffff1673ffffffffffffffffffffffffffffffffffffffff168152602001908152602001600020600101600082825461102a9190611e0d565b9250508190555081600160008282546110439190611e63565b92505081905550505050565b3373ffffffffffffffffffffffffffffffffffffffff1660008054906101000a900473ffffffffffffffffffffffffffffffffffffffff1673ffffffffffffffffffffffffffffffffffffffff16146110dd576040517f08c379a00000000000000000000000000000000000000000000000000000000081526004016110d490611f75565b60405180910390fd5b8160405180604001604052808473ffffffffffffffffffffffffffffffffffffffff16815260200183815250600260008573ffffffffffffffffffffffffffffffffffffffff1673ffffffffffffffffffffffffffffffffffffffff16815260200190815260200160002060008201518160000160006101000a81548173ffffffffffffffffffffffffffffffffffffffff021916908373ffffffffffffffffffffffffffffffffffffffff16021790555060208201518160010155905050600360008273ffffffffffffffffffffffffffffffffffffffff1673ffffffffffffffffffffffffffffffffffffffff16815260200190815260200160002060000160009054906101000a900473ffffffffffffffffffffffffffffffffffffffff1673ffffffffffffffffffffffffffffffffffffffff16600260008373ffffffffffffffffffffffffffffffffffffffff1673ffffffffffffffffffffffffffffffffffffffff16815260200190815260200160002060000160009054906101000a900473ffffffffffffffffffffffffffffffffffffffff1673ffffffffffffffffffffffffffffffffffffffff1614156112cf576040517f08c379a00000000000000000000000000000000000000000000000000000000081526004016112c690612073565b60405180910390fd5b505050565b60026020528060005260406000206000915090508060000160009054906101000a900473ffffffffffffffffffffffffffffffffffffffff16908060010154905082565b3373ffffffffffffffffffffffffffffffffffffffff1660008054906101000a900473ffffffffffffffffffffffffffffffffffffffff1673ffffffffffffffffffffffffffffffffffffffff16146113a6576040517f08c379a000000000000000000000000000000000000000000000000000000000815260040161139d90611f75565b60405180910390fd5b600260008273ffffffffffffffffffffffffffffffffffffffff1673ffffffffffffffffffffffffffffffffffffffff168152602001908152602001600020600080820160006101000a81549073ffffffffffffffffffffffffffffffffffffffff02191690556001820160009055505050565b81600360008273ffffffffffffffffffffffffffffffffffffffff1673ffffffffffffffffffffffffffffffffffffffff16815260200190815260200160002060000160009054906101000a900473ffffffffffffffffffffffffffffffffffffffff1673ffffffffffffffffffffffffffffffffffffffff16600260008373ffffffffffffffffffffffffffffffffffffffff1673ffffffffffffffffffffffffffffffffffffffff16815260200190815260200160002060000160009054906101000a900473ffffffffffffffffffffffffffffffffffffffff1673ffffffffffffffffffffffffffffffffffffffff16141561154e576040517f08c379a000000000000000000000000000000000000000000000000000000000815260040161154590611cc0565b60405180910390fd5b6064821115611592576040517f08c379a000000000000000000000000000000000000000000000000000000000815260040161158990611fe1565b60405180910390fd5b81600360008573ffffffffffffffffffffffffffffffffffffffff1673ffffffffffffffffffffffffffffffffffffffff16815260200190815260200160002060010181905550505050565b60008082600360008273ffffffffffffffffffffffffffffffffffffffff1673ffffffffffffffffffffffffffffffffffffffff16815260200190815260200160002060000160009054906101000a900473ffffffffffffffffffffffffffffffffffffffff1673ffffffffffffffffffffffffffffffffffffffff16600260008373ffffffffffffffffffffffffffffffffffffffff1673ffffffffffffffffffffffffffffffffffffffff16815260200190815260200160002060000160009054906101000a900473ffffffffffffffffffffffffffffffffffffffff1673ffffffffffffffffffffffffffffffffffffffff161415611715576040517f08c379a000000000000000000000000000000000000000000000000000000000815260040161170c90611cc0565b60405180910390fd5b3373ffffffffffffffffffffffffffffffffffffffff1660008054906101000a900473ffffffffffffffffffffffffffffffffffffffff1673ffffffffffffffffffffffffffffffffffffffff16146117a3576040517f08c379a000000000000000000000000000000000000000000000000000000000815260040161179a90611f75565b60405180910390fd5b600260008573ffffffffffffffffffffffffffffffffffffffff1673ffffffffffffffffffffffffffffffffffffffff16815260200190815260200160002060000160009054906101000a900473ffffffffffffffffffffffffffffffffffffffff169250600260008573ffffffffffffffffffffffffffffffffffffffff1673ffffffffffffffffffffffffffffffffffffffff16815260200190815260200160002060010154915050915091565b6000819050919050565b61186681611853565b82525050565b6000602082019050611881600083018461185d565b92915050565b600080fd5b600073ffffffffffffffffffffffffffffffffffffffff82169050919050565b60006118b78261188c565b9050919050565b6118c7816118ac565b81146118d257600080fd5b50565b6000813590506118e4816118be565b92915050565b6118f381611853565b81146118fe57600080fd5b50565b600081359050611910816118ea565b92915050565b6000806040838503121561192d5761192c611887565b5b600061193b858286016118d5565b925050602061194c85828601611901565b9150509250929050565b60006119618261188c565b9050919050565b61197181611956565b811461197c57600080fd5b50565b60008135905061198e81611968565b92915050565b6000806000606084860312156119ad576119ac611887565b5b60006119bb8682870161197f565b93505060206119cc86828701611901565b92505060406119dd86828701611901565b9150509250925092565b6119f0816118ac565b82525050565b6000602082019050611a0b60008301846119e7565b92915050565b600060208284031215611a2757611a26611887565b5b6000611a35848285016118d5565b91505092915050565b600081519050919050565b600082825260208201905092915050565b60005b83811015611a78578082015181840152602081019050611a5d565b83811115611a87576000848401525b50505050565b6000601f19601f8301169050919050565b6000611aa982611a3e565b611ab38185611a49565b9350611ac3818560208601611a5a565b611acc81611a8d565b840191505092915050565b60006020820190508181036000830152611af18184611a9e565b905092915050565b611b0281611956565b82525050565b6000606082019050611b1d6000830186611af9565b611b2a602083018561185d565b611b37604083018461185d565b949350505050565b6000606082019050611b5460008301866119e7565b611b61602083018561185d565b611b6e604083018461185d565b949350505050565b60008060408385031215611b8d57611b8c611887565b5b6000611b9b8582860161197f565b9250506020611bac85828601611901565b9150509250929050565b6000604082019050611bcb6000830185611af9565b611bd8602083018461185d565b9392505050565b6000604082019050611bf460008301856119e7565b611c01602083018461185d565b9392505050565b7f416d6f756e74206d75737420626967676572207468616e203020210000000000600082015250565b6000611c3e601b83611a49565b9150611c4982611c08565b602082019050919050565b60006020820190508181036000830152611c6d81611c31565b9050919050565b7f596f757265206e6f742074656163686572000000000000000000000000000000600082015250565b6000611caa601183611a49565b9150611cb582611c74565b602082019050919050565b60006020820190508181036000830152611cd981611c9d565b9050919050565b7f54686520616d6f756e742073656e742063616e6e6f742065786365656420312060008201527f6574686572210000000000000000000000000000000000000000000000000000602082015250565b6000611d3c602683611a49565b9150611d4782611ce0565b604082019050919050565b60006020820190508181036000830152611d6b81611d2f565b9050919050565b7f596f7572206578616d20706f696e7420626967676572207468616e2038352100600082015250565b6000611da8601f83611a49565b9150611db382611d72565b602082019050919050565b60006020820190508181036000830152611dd781611d9b565b9050919050565b7f4e487b7100000000000000000000000000000000000000000000000000000000600052601160045260246000fd5b6000611e1882611853565b9150611e2383611853565b9250827fffffffffffffffffffffffffffffffffffffffffffffffffffffffffffffffff03821115611e5857611e57611dde565b5b828201905092915050565b6000611e6e82611853565b9150611e7983611853565b925082821015611e8c57611e8b611dde565b5b828203905092915050565b7f546f6f206d616e79207265717565737420746f206578747261207061796d656e60008201527f7421000000000000000000000000000000000000000000000000000000000000602082015250565b6000611ef3602283611a49565b9150611efe82611e97565b604082019050919050565b60006020820190508181036000830152611f2281611ee6565b9050919050565b7f596f757265206e6f74206d616e616765722e0000000000000000000000000000600082015250565b6000611f5f601283611a49565b9150611f6a82611f29565b602082019050919050565b60006020820190508181036000830152611f8e81611f52565b9050919050565b7f53686f756c642062652031303000000000000000000000000000000000000000600082015250565b6000611fcb600d83611a49565b9150611fd682611f95565b602082019050919050565b60006020820190508181036000830152611ffa81611fbe565b9050919050565b7f5465616368657220616e642073747564656e742061646472657373657320736860008201527f6f756c64206e6f74206265207468652073616d65212100000000000000000000602082015250565b600061205d603683611a49565b915061206882612001565b604082019050919050565b6000602082019050818103600083015261208c81612050565b9050919050565b7f54686520706f696e742073686f756c6420626520300000000000000000000000600082015250565b60006120c9601583611a49565b91506120d482612093565b602082019050919050565b600060208201905081810360008301526120f8816120bc565b905091905056fea2646970667358221220532d74e09b18dc0fcb396820f15adaeec704c5104b2620898c8de2927d553f0464736f6c63430008090033",
  "linkReferences": {},
  "deployedLinkReferences": {}
}